10011560001115012008GJONI                         ARMAND                        06071979MALBANESE                      00000000000000000000000000020101                                                                                                      CORSO DANTE 7                                                              10024               
200115600011011GJNRND79L06Z100ZGJONI                         ARMAND                        06071979M      201ALBANESE                      201
10011560001202122014PETRITAJ                      PRANVERA                      04031979FALBANESE                      00000000000000000000000000020101                                                                                                      VIA SESTRIERE 47B                                                          10024               
200115600012011PTRPNV79C44Z100APETRITAJ                      PRANVERA                      04031979F      201ALBANESE                      201
10011560001306102016LAZRI                         GJOVALIN                      16051990MALBANESE                      00000000000000000000000000020101                                                                                                      VIA TRENTO 16                                                              10024               
200115600013011LZRGVL90E16Z100GLAZRI                         GJOVALIN                      16051990M      201ALBANESE                      201
10011560001422012016SPAHIU                        ALGER                         13071999MALBANESE                      00000000000000000000000000020101                                                                                                      VIA REAL COLLEGIO 10                                                       10024               
200115600014011SPHLGR99L13Z100ZSPAHIU                        ALGER                         13071999M      201ALBANESE                      201
10011560002118092015PALOKA                        INDRIT                        10061983MALBANESE                      00000000000000000000000000020102                                                                                                      CORSO FRATELLI ROSSELLI 10                                                 10024               
200115600021011PLKNRT83H10Z100TPALOKA                        INDRIT                        10061983M      201ALBANESE                      201
200115600021023PLKVNT87B08Z100RPALOKA                        VALENTIN                      08021987M      201ALBANESE                      201
10011560002208052013GJANA                         ANILA                         15121977FALBANESE                      00000000000000000000000000020102                                                                                                      VIA CESARE BATTISTI 8                                                      10024               
200115600022011GJNNLA77T55Z100NGJANA                         ANILA                         15121977F      201ALBANESE                      201
200115600022023KNTKLD04R21Z100JKONTI                         KLAUDIO                       21102004M      201ALBANESE                      201
10011560002329072014SINA                          VERGJINUSH                    27021961FALBANESE                      00000000000000000000000000020102                                                                                                      STRADA CUNIOLI ALTI 24                                                     10024               
200115600023011SNIVGJ61B67Z100YSINA                          VERGJINUSH                    27021961F      201ALBANESE                      201
200115600023023SNINSA95A59Z100SSINA                          ANISA                         19011995F      201ALBANESE                      201
10011560002430102013GJOKA                         VIOLETA                       20081968FALBANESE                      00000000000000000000000000020102                                                                                                      PIAZZA BENGASI 25                                                          10024               
200115600024011GJKVLT68M60Z100OGJOKA                         VIOLETA                       20081968F      201ALBANESE                      201
200115600024023GJKRHM92E17Z100SGJOKA                         RRAHMAN                       17051992M      201ALBANESE                      201
10011560003130052014URUCI                         FESTIM                        27041985MALBANESE                      00000000000000000000000000020103URUCI                         GENTIANA                      16071988FALBANESE                      201VIA CAVOUR 15BIS                                                           10024               
200115600031011RCUFTM85D27Z100DURUCI                         FESTIM                        27041985M      201ALBANESE                      201
200115600031022RCUGTN88L56Z100GURUCI                         GENTIANA                      16071988F      201ALBANESE                      201
200115600031033RCUFNC12P60F335PURUCI                         FRANCESCA                     20092012F001156   ALBANESE                      201
10011560003205072011KRASNIQI                      JETA                          08111962FALBANESE                      00000000000000000000000000020103                                                                                                      LUNGO PO ABELLONIO 121                                                     10024               
200115600032011KRSJTE62S48Z100GKRASNIQI                      JETA                          08111962F      201ALBANESE                      201
200115600032023KRSMGN90E45Z100OKRASNIQI                      MIGENA                        05051990F      201ALBANESE                      201
200115600032033VKRDJN13S57F335AVOKRRI                        DAJANA                        17112013F001156   ALBANESE                      201
10011560003311062003DURA                          BLERTA                        15051974FALBANESE                      00000000000000000000000000020103                                                                                                      VIA GIACOMO PUCCINI 26                                                     10024               
200115600033011DRUBRT74E55Z100MDURA                          BLERTA                        15051974F      201ALBANESE                      201
200115600033023CSTCSN06T59F335JCOSTA                         CASSANDRA                     19122006F001156   ITALIANA                      001
200115600033033CSTSLD65B09L063YCOSTA                         OSVALDO                       09021965M080093   ITALIANA                      001
10011560003430062006IMAMAJ                        SELAUDIN                      10111970MALBANESE                      00000000000000000000000000020103MURATAJ                       VIOLETA                       31121983FITALIANA                      001VIA SALUZZO 16                                                             10024               
200115600034011MMJSDN70S10Z100QIMAMAJ                        SELAUDIN                      10111970M      201ALBANESE                      201
200115600034022MRTVLT83T71Z100GMURATAJ                       VIOLETA                       31121983F      201ITALIANA                      001
200115600034033MMJRRT02T55L219MIMAMAJ                        ROBERTA                       15122002F001272   ITALIANA                      001
10011560004107082013DEDA                          AGIM                          24091976MALBANESE                      00000000000000000000000000020104NIKOLLI                       DRITA                         05111983FALBANESE                      201STRADA SCALETTE 1                                                          10024               
200115600041011DDEGMA76P24Z100CDEDA                          AGIM                          24091976M      201ALBANESE                      201
200115600041022NKLDRT83S45Z100LNIKOLLI                       DRITA                         05111983F      201ALBANESE                      201
200115600041033DDEDSS13C68F335JDEDA                          ADELISSA                      28032013F001156   ALBANESE                      201
200115600041043DDERND17A24F335CDEDA                          ARMANDO                       24012017M001156   ALBANESE                      201
10011560004227092007KOLA                          ARBEN                         10091978MALBANESE                      00000000000000000000000000020104KOLA                          VALBONA                       25011983FALBANESE                      201STRADA GORREE 4025                                                         10024               
200115600042011KLORBN78P10Z100GKOLA                          ARBEN                         10091978M      201ALBANESE                      201
200115600042022KLOVBN83A65Z100WKOLA                          VALBONA                       25011983F      201ALBANESE                      201
200115600042033KLOSLJ09T66F335YKOLA                          SEATILJANA                    26122009F001156   ALBANESE                      201
200115600042043KLORBN12R46F335HKOLA                          ARBANA                        06102012F001156   ALBANESE                      201
10011560004321052001HORANLLI                      AUREL                         17111967MALBANESE                      00000000000000000000000000020104HORANLLI                      MIGENA                        07021979FALBANESE                      201STRADA GENOVA 242                                                          10024               
200115600043011HRNRLA67S17Z100XHORANLLI                      AUREL                         17111967M      201ALBANESE                      201
200115600043022HRNMGN79B47Z100LHORANLLI                      MIGENA                        07021979F      201ALBANESE                      201
200115600043033HRNSFO99L64Z100SHORANLLI                      SOFIA                         24071999F      201ALBANESE                      201
200115600043043HRNLRI11E58F335NHORANLLI                      ILARIA                        18052011F001156   ALBANESE                      201
10011560004403062005ZEFI                          BLEDAR                        24061982MALBANESE                      00000000000000000000000000020105ZEFI                          ESMERALDA                     30121989FALBANESE                      201STRADA RIGOLFO 8                                                           10024               
200115600044011ZFEBDR82H24Z100HZEFI                          BLEDAR                        24061982M      201ALBANESE                      201
200115600044022ZFESRL89T70Z100UZEFI                          ESMERALDA                     30121989F      201ALBANESE                      201
200115600044033ZFELSS12B27F335XZEFI                          ALESSIO                       27022012M001156   ALBANESE                      201
200115600044043ZFEGRT86P21Z100WZEFI                          GERTI                         21091986M      201ALBANESE                      201
200115600044053LSINLD95S58Z100TLISI                          ENKELEDA                      18111995F      201ALBANESE                      201
10011560005115102013VILLCA DE RAMIREZ             TIBURSIA                      14121972FBOLIVIANA                     00000000000000000000000000060402RAMIREZ ALANES                ERASMO                        25111963MBOLIVIANA                     604VIA CAVOUR 26                                                              10024               
200115600051011VLLTRS72T54Z601BVILLCA DE RAMIREZ             TIBURSIA                      14121972F      604BOLIVIANA                     604
200115600051022RMRRSM63S25Z601YRAMIREZ ALANES                ERASMO                        25111963M      604BOLIVIANA                     604
10011560005216112010DEDAKOVIC                     ESAD                          29031957MBOSNIACA                      00000000000000000000000000025201                                                                                                      STRADA BRANDINA 18                                                         10024               
200115600052011DDKSDE57C29Z153WDEDAKOVIC                     ESAD                          29031957M      252BOSNIACA                      252
10011560005302052002DZERAHOVIC                    FADIL                         15021961MBOSNIACA                      00000000000000000000000000025203DZERAHOVIC                    SEHAVETA                      20041962FBOSNIACA                      252CORSO TRIESTE 79                                                           10024               
200115600053011DZRFDL61B15Z153ADZERAHOVIC                    FADIL                         15021961M      000BOSNIACA                      252
200115600053022DZRSVT62D60Z153ZDZERAHOVIC                    SEHAVETA                      20041962F      252BOSNIACA                      252
200115600053033DZRNDR84B65Z153ADZERAHOVIC                    INDIRA                        25021984F      000BOSNIACA                      252
10011560005411092014HALILOVIC'                    ANDREA                        17041990MBOSNIACA                      00000000000000000000000000025203                                                                                                      STRADA BARAUDA 1                                                           10024               
200115600054011HLLNDR90D17L219XHALILOVIC'                    ANDREA                        17041990M001272   BOSNIACA                      252
200115600054023HLLFDL58E06Z118PHALILOVIC'                    FADIL                         06051958M      224BOSNIACA                      252
200115600054033SFRJGD96A41L219SSEFEROVIC                     JAGODA                        01011996F001272   BOSNIACA                      252
10011560006120052011PEREIRA DA SILVA              ANDREA MARIA                  14121972FBRASILIANA                    00000000000000000000000000060504                                                                                                      STRADA GENOVA 138                                                          10024               
200115600061011PRRNRM72T54Z602XPEREIRA DA SILVA              ANDREA MARIA                  14121972F      605BRASILIANA                    605
200115600061023PRRTMS02E29D205JPEREIRA DIAS                  TOMMASO GIUSEPPE              29052002M004078   BRASILIANA                    605
200115600061033PRRJNY05P22L219FPEREIRA DIAS                  JONNY                         22092005M001272   BRASILIANA                    605
200115600061043CVLVNT10B60L219FCAVALLO                       VALENTINA NOEMI               20022010F001272   ITALIANA                      001
10011560006204052007FERREIRA DA SILVA             MARIA LUIZA                   06021987FBRASILIANA                    00000000000000000000000000060504                                                                                                      CORSO TRIESTE 67                                                           10024               
200115600062011FRRMLZ87B46Z602NFERREIRA DA SILVA             MARIA LUIZA                   06021987F      605BRASILIANA                    605
200115600062023PLTMCS09M22F335WPILATO                        MARCOS                        22082009M001156   ITALIANA                      001
200115600062033PLTMYR12A71F335PPILATO                        MAYRA                         31012012F001156   ITALIANA                      001
200115600062043DSLMCL50C51Z602VDA SILVA                      MARIA CLEIDE                  11031950F      605ITALIANA                      001
10011560006316042012DA SILVA FERREIRA             DIVA CRISTINA                 18061966FBRASILIANA                    00000000000000000000000000060504                                                                                                      VIA FILIPPO TURATI 16                                                      10024               
200115600063011DSLDCR66H58Z602FDA SILVA FERREIRA             DIVA CRISTINA                 18061966F      605BRASILIANA                    605
200115600063023FRRPLY89R49Z602FFERREIRA DA SILVA             POLLYANA CAMILLA              09101989F      605BRASILIANA                    605
200115600063033FRRCSC97L64Z602QFERREIRA DA SILVA             CASSIA CRISTINA               24071997F      605BRASILIANA                    605
200115600063043PCLNLL70T26G813OAPICELLA                      ANIELLO                       26121970M063058   ITALIANA                      001
10011560006413082013MADEIRA                       JUSCELIO SERGIO               01121968MBRASILIANA                    00000000000000000000000000060504MARCOS FERREIRA               ERICA                         01041980FBRASILIANA                    605STRADA CARIGNANO 22                                                        10024               
200115600064011MDRJCL68T01Z602GMADEIRA                       JUSCELIO SERGIO               01121968M      605BRASILIANA                    605
200115600064022MRCRCE80D41Z602LMARCOS FERREIRA               ERICA                         01041980F      605BRASILIANA                    605
200115600064033MDRSFN97A21Z602TMADEIRA DIAS                  STEFANO LUIGI                 21011997M      605BRASILIANA                    605
200115600064043DSMSML99T29Z602UDIAS MADEIRA                  SAMUEL                        29121999M      605BRASILIANA                    605
10011560007104092013MEDINA VARGAS                 NELSY BIBIANA                 16031976FCOLOMBIANA                    00000000000000000000000000060802                                                                                                      CORSO TRIESTE 81                                                           10024               
200115600071011MDNNSY76C56Z604FMEDINA VARGAS                 NELSY BIBIANA                 16031976F      608COLOMBIANA                    608
200115600071023CMPSKR08E63L013ECAMPORA                       SHAKIRA GIANNINA              23052008F001270   ITALIANA                      001
10011560007221102015GARY MONTOYA                  PAOLA ANDREA                  08081977FCOLOMBIANA                    00000000000000000000000000060802                                                                                                      VIA GIACOMO PUCCINI 4                                                      10024               
200115600072011GRYPND77M48Z604AGARY MONTOYA                  PAOLA ANDREA                  08081977F      608COLOMBIANA                    608
200115600072023GRYNTA02E26Z604FGARY MONTOYA                  ANTU                          26052002M      608COLOMBIANA                    608
10011560007311112016PALACIOS CARDENAS             NANCY YAMILE                  18011982FCOLOMBIANA                    00000000000000000000000000060804RODRIGUEZ GOMEZ               WILLIAM DANILO                08081986MCOLOMBIANA                    608VIA GARIBALDI 12                                                           10024               
200115600073011PLCNCY82A58Z604APALACIOS CARDENAS             NANCY YAMILE                  18011982F      608COLOMBIANA                    608
200115600073022RDRWLM86M08Z604MRODRIGUEZ GOMEZ               WILLIAM DANILO                08081986M      608COLOMBIANA                    608
200115600073033PLCJMY97C47Z604RPALACIOS CARDENAS             JEIMMY MILENA                 07031997F      608COLOMBIANA                    608
200115600073043MRNLYT01H51Z604AMARIN PALACIOS                LEIDY TATIANA                 11062001F      608COLOMBIANA                    608
10011560007430032017NARANJO GARCIA                MANUEL ALEJANDRO              21101986MCOLOMBIANA                    00000000000000000000000000060804                                                                                                      VIA S.MARIA 3510                                                           10024               
200115600074011NRNMLL86R21Z604MNARANJO GARCIA                MANUEL ALEJANDRO              21101986M      608COLOMBIANA                    608
200115600074023NRNNRS02R04L219YNARANJO BARRERA               ANDRES FELIPE                 04102002M001272   COLOMBIANA                    608
200115600074033NRNDDY07A26L219ZNARANJO BARREREA              DADDY ALEJANDRO               26012007M001272   ECUADOREGNA                   609
200115600074043BRRDRC82H56Z604PBARRERA PALACIOS              DIANE ROCIO                   16061982F      608COLOMBIANA                    608
10011560008122091995BAUZA GARCIA                  SADY ESTHER                   28101971FCUBANA                        00000000000000000000000000051404                                                                                                      VIA GIACOMO MATTEOTTI 10                                                   10024               
200115600081011BZGSYS71R68Z504QBAUZA GARCIA                  SADY ESTHER                   28101971F      514CUBANA                        514
200115600081023SNTSYY91P44Z504ISANTI BAUZA                   SADY YASIRA                   04091991F      514CUBANA                        514
200115600081033BNKGND98H64Z504WEBANKS BAUZA                  GLENDA BERNICE                24061998F      514CUBANA                        514
200115600081043RDRWLM16D18F335ORODRIGUEZ BAUZA               WILLIAM JESUS                 18042016M001156   SVEDESE                       240
10011560008212112009MARTINEZ RODRIGUEZ            LISBETH                       15091983FCUBANA                        00000000000000000000000000051405GALLIANO                      ENRICO                        27041974MITALIANA                      001VIA CAVOUR 19                                                              10024               
200115600082011MRTLBT83P55Z504NMARTINEZ RODRIGUEZ            LISBETH                       15091983F      514CUBANA                        514
200115600082022GLLNRC74D27L219IGALLIANO                      ENRICO                        27041974M001272   ITALIANA                      001
200115600082033RMSRXN01B63Z504TRAMOS MARTINEZ                ROXANA                        23022001F      514CUBANA                        514
200115600082043GLLRCR13B12F335CGALLIANO                      RICCARDO BATTISTA             12022013M001156   ITALIANA                      001
200115600082053MSFMSL80B60Z504BMESA FORNARIS                 MASSIEL                       20021980F      514CUBANA                        514
10011560008304092002GUILARTE FUENTES              DELVIS                        08081968FCUBANA                        00000000000000000000000000051405                                                                                                      VIA CRISTOFORO COLOMBO 15                                                  10024               
200115600083011GLRDVS68M48Z504UGUILARTE FUENTES              DELVIS                        08081968F      514CUBANA                        514
200115600083023BSCHLD00B19L219UBOSCO                         HERALD GIUSEPPE               19022000M001272   ITALIANA                      001
200115600083033BSCHLN01H49L219ZBOSCO                         HELEN                         09062001F001272   ITALIANA                      001
200115600083043GLRJLT09A71F335IGUILARTE FUENTES              JULIET                        31012009F001156   ITALIANA                      001
200115600083053GLRNVS68M56Z504BGUILARTE FUENTES              NELVIS                        16081968F      514CUBANA                        514
10011560008419041999SANDER                        KIRSTEN ELISABETH             05061949FDANESE                        00000000000000000000000000021201                                                                                                      STRADA MONCALVO 49                                                         10024               
200115600084011SNDKST49H45Z107LSANDER                        KIRSTEN ELISABETH             05061949F      212DANESE                        212
10011560009121062010HAMZA                         DOAA HOSNY ABD ELAZIZ         01061979FEGIZIANA                      00000000000000000000000000041903MOHAMED TAHA MORSHED          SAID                          12061970MEGIZIANA                      419CORSO ROMA 14                                                              10024               
200115600091011HSNDOA79H41Z336KHAMZA                         DOAA HOSNY ABD ELAZIZ         01061979F      419EGIZIANA                      419
200115600091022MHMSDA70H12Z336CMOHAMED TAHA MORSHED          SAID                          12061970M      419EGIZIANA                      419
200115600091033MRSMMS02H64Z336YMORSHED                       MARIAM SAID MOHAMED TAHA      24062002F      419EGIZIANA                      419
10011560009226032002FOHEIL                        YAHIA MORSY MOSTAFA           28041963MEGIZIANA                      00000000000000000000000000041903SHAHIN                        MFIDA ZAKY RADY               20031965FEGIZIANA                      419VIA SESTRIERE 32                                                           10024               
200115600092011FHLYMR63D28Z336XFOHEIL                        YAHIA MORSY MOSTAFA           28041963M      419EGIZIANA                      419
200115600092022SHHMDZ65C60Z336GSHAHIN                        MFIDA ZAKY RADY               20031965F      419EGIZIANA                      419
200115600092033FHLNLY00A61Z336TFOHEIL                        NAGLAA YAHIA MORSY MOSTAFA    21012000F      419EGIZIANA                      419
10011560009302022016ABOUGHEDIA                    SHERIF EZZAT ABDELRAOUF       01071983MEGIZIANA                      00000000000000000000000000041903SALAH MOHAMED ELMAHY          SABREN                        31031984FEGIZIANA                      419VIA TIEPOLO 11                                                             10024               
200115600093011BGHSRF83L01Z336AABOUGHEDIA                    SHERIF EZZAT ABDELRAOUF       01071983M      419EGIZIANA                      419
200115600093022SLHSRN84C71Z336ISALAH MOHAMED ELMAHY          SABREN                        31031984F      419EGIZIANA                      419
200115600093033SHRSRN08S56Z336BSHERIF EZZAT ABDELRAOUF ABOU GSABRINA                       16112008F      419EGIZIANA                      419
10011560009417122012EMAM HUSSEIN EMAM SALEH HOSSAMADEL                          06041986MEGIZIANA                      00000000000000000000000000041903                                                                                                      VIA SESTRIERE 47TER                                                        10024               
200115600094011MMHDLA86D06Z336VEMAM HUSSEIN EMAM SALEH HOSSAMADEL                          06041986M      419EGIZIANA                      419
200115600094023MSTHMD86R06Z336UMOUSTAFA FARAG ABOUHUSSEIN    AHMED                         06101986M      419EGIZIANA                      419
200115600094033LBRBHM97D26Z336PELBORAEI                      IBRAHIM MAHMOUD IBRAHIM ATTIA 26041997M      419EGIZIANA                      419
10011560010107022007ZYUKOVA                       TATIANA                       08111970FRUSSA                         00000000000000000000000000024501                                                                                                      STRADA STUPINIGI 1                                                         10024               
200115600101011ZYKTTN70S48Z154EZYUKOVA                       TATIANA                       08111970F      245RUSSA                         245
10011560010229072014GABUEVA                       LIUDMILA                      08111960FRUSSA                         00000000000000000000000000024501                                                                                                      VICOLO GALLEA 4                                                            10024               
200115600102011GBVLML60S48Z154ZGABUEVA                       LIUDMILA                      08111960F      245RUSSA                         245
10011560010324082011MAKAGONOVA                    ELENA                         13031965FRUSSA                         00000000000000000000000000024501                                                                                                      VIA LUCREZIO CARO 14                                                       10024               
200115600103011MKGLNE65C53Z154YMAKAGONOVA                    ELENA                         13031965F      245RUSSA                         245
10011560010419122016SIDOROV                       ANTON                         09111983MRUSSA                         00000000000000000000000000024501                                                                                                      STRADA GENOVA 32TER                                                        10024               
200115600104011SDRNTN83S09Z154BSIDOROV                       ANTON                         09111983M      245RUSSA                         245
10011560011116022016ANTONIO                       MARGIE                        16111973FFILIPPINA                     00000000000000000000000000032302SUDARIA                       RODOLFO JR.                   19041972MFILIPPINA                     323VIA SESTRIERE 53                                                           10024               
200115600111011NTNMRG73S56Z216BANTONIO                       MARGIE                        16111973F      323FILIPPINA                     323
200115600111022SDRRLF72D19Z216NSUDARIA                       RODOLFO JR.                   19041972M      323FILIPPINA                     323
10011560011208082013SADURAL                       BARBARA OASIN                 07061978FFILIPPINA                     00000000000000000000000000032302                                                                                                      STRADA S.BRIGIDA 30                                                        10024               
200115600112011SDRBBR78H47Z216USADURAL                       BARBARA OASIN                 07061978F      323FILIPPINA                     323
200115600112023GNABLS08C49F335PGANAO                         BEA PAOLA                     09032008F001156   FILIPPINA                     323
10011560011304122013REYES                         JUANITO                       24111956MFILIPPINA                     00000000000000000000000000032302                                                                                                      VIA DELLE ACACIE 20                                                        10024               
200115600113011RYSJNT56S24Z216YREYES                         JUANITO                       24111956M      323FILIPPINA                     323
200115600113023RYSMCR56L61Z216XREYES                         MA SOCORRO                    21071956F      323FILIPPINA                     323
10011560011406112006ARIODER                       EMERITA ADIAZ                 12041957FFILIPPINA                     00000000000000000000000000032302ARIODER                       VICENTE                       03081957MFILIPPINA                     323VIALE DEL PARCO 3                                                          10024               
200115600114011RDRMTD57D52Z216BARIODER                       EMERITA ADIAZ                 12041957F      323FILIPPINA                     323
200115600114022RDRVNT57M03Z216OARIODER                       VICENTE                       03081957M      323FILIPPINA                     323
10011560012112022009RICARD                        NICOLAS LIONEL HERVE'         11091971MFRANCESE                      00000000000000000000000000021501                                                                                                      STRADA S.BRIGIDA 44                                                        10024               
200115600121011RCRNLS71P11Z110YRICARD                        NICOLAS LIONEL HERVE'         11091971M      215FRANCESE                      215
10011560012213112013JOUBERT VENTRE                ANNIE ANTOINETTE              02041946FFRANCESE                      00000000000000000000000000021501                                                                                                      CORSO TRIESTE 35                                                           10024               
200115600122011JBRNNT46D42Z110KJOUBERT VENTRE                ANNIE ANTOINETTE              02041946F      215FRANCESE                      215
10011560012307092015VIDREQUIN                     ALIXIA, YVONNE, THERESE       20021968FFRANCESE                      00000000000000000000000000021501                                                                                                      STRADA PECENASCO 12                                                        10024               
200115600123011VDRLYV68B60Z110EVIDREQUIN                     ALIXIA, YVONNE, THERESE       20021968F      215FRANCESE                      215
10011560012419092016GROS                          JEANNE                        05111957FFRANCESE                      00000000000000000000000000021501                                                                                                      VIA GIUSEPPE ROMITA 32                                                     10024               
200115600124011GRSJNN57S45Z110GGROS                          JEANNE                        05111957F      215FRANCESE                      215
10011560013129102012MONNERJAN                     CARSTEN                       08021967MTEDESCA                       00000000000000000000000000021604MONNERJAN                     KATJA                         16061969FTEDESCA                       216STRADA S.BRIGIDA 6412                                                      10024               
200115600131011MNNCST67B08Z112AMONNERJAN                     CARSTEN                       08021967M      216TEDESCA                       216
200115600131022MNNKTJ69H56Z112UMONNERJAN                     KATJA                         16061969F      216TEDESCA                       216
200115600131033MNNLCU98T10Z131EMONNERJAN                     LUCA                          10121998M      239TEDESCA                       216
200115600131043MNNFBA01R04Z131ZMONNERJAN                     FABIO                         04102001M      239TEDESCA                       216
10011560013221042016SCHUENEMANN                   RALPH HERMANN                 13011971MTEDESCA                       00000000000000000000000000021605GARCIA GARCIA                 SONIA MARIA                   30071967FSPAGNOLA                      239STRADA COSTALUNGA 18                                                       10024               
200115600132011SCHRPH71A13Z112MSCHUENEMANN                   RALPH HERMANN                 13011971M      216TEDESCA                       216
200115600132022GRCSMR67L70Z131WGARCIA GARCIA                 SONIA MARIA                   30071967F      239SPAGNOLA                      239
200115600132033SCHCMH03S29Z112YSCHUENEMANN GARCIA            COSME HERMANN                 29112003M      216TEDESCA                       216
200115600132043SCHNSB05E46Z112SSCHUENEMANN GARCIA            NAIRA ISABEL                  06052005F      216TEDESCA                       216
200115600132053SCHSPH07B46Z112NSCHUENEMANN GARCIA            SOPHIE                        06022007F      216TEDESCA                       216
10011560013322092006TEVI                          DOMINIC                       05051972MGHANESE                       00000000000000000000000000042301                                                                                                      VIA S.GIOVANNI BOSCO 18                                                    10024               
200115600133011TVEDNC72E05Z318GTEVI                          DOMINIC                       05051972M      423GHANESE                       423
10011560013402122003ANDORFUL                      JOHN                          28061967MGHANESE                       00000000000000000000000000042305                                                                                                      VIA S.GIOVANNI BOSCO 18                                                    10024               
200115600134011NDRJHN67H28Z318AANDORFUL                      JOHN                          28061967M      423GHANESE                       423
200115600134023PROJDU64D04Z335UOPARA                         JUDE                          04041964M      443NIGERIANA                     443
200115600134033RTHJPH67S02Z318YARTHUR                        JOSEPH                        02111967M      423GHANESE                       423
200115600134043BFFNHN70D04Z318QBAFFOE                        NATHANIEL                     04041970M      423ITALIANA                      001
200115600134053NTSFNK80L14Z318PENTSIL                        FRANK KWEKU                   14071980M      423GHANESE                       423
10011560014112092013HALILOVIC                     ROKI                          10041987MITALIANA                      00000000000000000000000000000102AHMETOVIC                     GORTANA                       26111986FMONTENEGRINA                  270STRADA VINOVO                                                              10024               
200115600141011HLLRKO87D10Z153HHALILOVIC                     ROKI                          10041987M      252ITALIANA                      001
200115600141022HMTGTN86S66E791IAHMETOVIC                     GORTANA                       26111986F061048   MONTENEGRINA                  270
10011560014206072016CARRIERO                      MIRKO                         12011985MITALIANA                      00000000000000000000000000000102                                                                                                      VIA VENTIQUATTRO MAGGIO 71                                                 10024               
200115600142011CRRMRK85A12L219ZCARRIERO                      MIRKO                         12011985M001272   ITALIANA                      001
200115600142023LNANDA83E50Z330HALOUANI                       NADA                          10051983F      436MAROCCHINA                    436
10011560014331031980GERACE                        FRANCO                        27091972MITALIANA                      00000000000000000000000000000102                                                                                                      CORSO DANTE 14                                                             10024               
200115600143011GRCFNC72P27L219NGERACE                        FRANCO                        27091972M001272   ITALIANA                      001
200115600143023MRSMMR79R44D612JMARASIGAN                     MARIA MARGHERITA              04101979F048017   FILIPPINA                     323
10011560014406112009VETRANO                       GIUSEPPE                      11071952MITALIANA                      00000000000000000000000000000102BUI                           XUAN NU                       28071977FVIETNAMITA                    353CORSO ROMA 87                                                              10024               
200115600144011VTRGPP52L11A882JVETRANO                       GIUSEPPE                      11071952M082010   ITALIANA                      001
200115600144022BUIXNN77L68Z251BBUI                           XUAN NU                       28071977F      353VIETNAMITA                    353
10011560015105122011LIOCE                         OSVALDO                       07011942MITALIANA                      00000000000000000000000000000102                                                                                                      CORSO ROMA 9                                                               10024               
200115600151011LCISLD42A07D643ELIOCE                         OSVALDO                       07011942M071024   ITALIANA                      001
200115600151023VNTCNL57P62Z129WIVENTA                        CORNELIA                      22091957F      235RUMENA                        235
10011560015224112006BELLOPEDE                     STEFANO                       20021978MITALIANA                      00000000000000000000000000000102                                                                                                      STRADA GENOVA 93                                                           10024               
200115600152011BLLSFN78B20H355PBELLOPEDE                     STEFANO                       20021978M001219   ITALIANA                      001
200115600152023PSSNLH87E68Z114WPASSMORE                      NATALIE HELEN                 28051987F      219BRITANNICA                    219
10011560015323041969BUZZEGOLI                     STEFANIA                      23041969FITALIANA                      00000000000000000000000000000102THANA                         GJOK                          05111979MALBANESE                      201CORSO TRIESTE 67                                                           10024               
200115600153011BZZSFN69D63F335IBUZZEGOLI                     STEFANIA                      23041969F001156   ITALIANA                      001
200115600153022THNGJK79S05Z100ZTHANA                         GJOK                          05111979M      201ALBANESE                      201
10011560015424082006BUSSO                         VERONICA                      18111987FITALIANA                      00000000000000000000000000000102ABUGHOSH                      HASAN A.H.                    11021989M                              000VIA REAL COLLEGIO 16                                                       10024               
200115600154011BSSVNC87S58F335HBUSSO                         VERONICA                      18111987F001156   ITALIANA                      001
200115600154022BGHHNH89B11Z229JABUGHOSH                      HASAN A.H.                    11021989M      337                              000
10011560016101062006KHEDHIRI                      SOFIANE                       06051980MITALIANA                      00000000000000000000000000000102ABDRABAH                      FAOUEB                        14081980FFRANCESE                      215VIA S.MARIA 24E                                                            10024               
200115600161011KHDSFN80E06Z352PKHEDHIRI                      SOFIANE                       06051980M      460ITALIANA                      001
200115600161022BDRFBA80M54Z110QABDRABAH                      FAOUEB                        14081980F      215FRANCESE                      215
10011560016212032001VERRI                         GIUSEPPE                      16081947MITALIANA                      00000000000000000000000000000102                                                                                                      VIA PIETRO MASCAGNI 12                                                     10024               
200115600162011VRRGPP47M16M187QVERRI                         GIUSEPPE                      16081947M075094   ITALIANA                      001
200115600162023CHLLNE64E65Z129QCHELARIU                      ELENA                         25051964F      235RUMENA                        235
10011560016310102008PREGNO                        MARCO                         15081975MITALIANA                      00000000000000000000000000000102                                                                                                      STRADA GENOVA 261TER                                                       10024               
200115600163011PRGMRC75M15F335JPREGNO                        MARCO                         15081975M001156   ITALIANA                      001
200115600163023TMFRLL77L47Z129MTIMOFTE                       IRINEL ALINA                  07071977F      235RUMENA                        235
10011560016412062006VALENTE                       VITO LUIGI                    16091962MITALIANA                      00000000000000000000000000000102                                                                                                      VIALE PORTA PIACENTINA 59                                                  10024               
200115600164011VLNVLG62P16F104SVALENTE                       VITO LUIGI                    16091962M076048   ITALIANA                      001
200115600164023RDALLA75E58Z330ORADI                          LAILA                         18051975F      436MAROCCHINA                    436
10011560017121052013PAGLIONE                      ANGELO                        18011960MITALIANA                      00000000000000000000000000000102MAGHERCA                      ANA                           21031968FRUMENA                        235STRADA CARIGNANO 22                                                        10024               
200115600171011PGLNGL60A18B682NPAGLIONE                      ANGELO                        18011960M094006   ITALIANA                      001
200115600171022MGHNAA68C61Z129HMAGHERCA                      ANA                           21031968F      235RUMENA                        235
10011560017224102011MANZONE                       CLAUDIO                       14051959MITALIANA                      00000000000000000000000000000102                                                                                                      VIA SALUZZO 22                                                             10024               
200115600172011MNZCLD59E14L219MMANZONE                       CLAUDIO                       14051959M001272   ITALIANA                      001
200115600172023WUXXNG70T59Z2M0IWU                            XIAOYANG                      19121970F      314CINESE                        314
10011560017325111986NERI                          ADRIANA                       25081937FITALIANA                      00000000000000000000000000000102CAMPAGNA                      FRANCESCO GAETANO             29021936MSVIZZERA                      241STRADA VISONE 6                                                            10024               
200115600173011NREDRN37M65B143DNERI                          ADRIANA                       25081937F024015   ITALIANA                      001
200115600173022CMPFNC36B29Z133OCAMPAGNA                      FRANCESCO GAETANO             29021936M      241SVIZZERA                      241
10011560017418032009VENTURINO                     PIER GIORGIO                  25081937MITALIANA                      00000000000000000000000000000102TORRADO ROSABAL               MABEL                         14051978FCUBANA                        514VIA SESTRIERE 39                                                           10024               
200115600174011VNTPGR37M25F335DVENTURINO                     PIER GIORGIO                  25081937M001156   ITALIANA                      001
200115600174022TRRMBL78E54Z504BTORRADO ROSABAL               MABEL                         14051978F      514CUBANA                        514
10011560018102121975ACQUACHIARA                   GIUSEPPE                      02071945MITALIANA                      00000000000000000000000000000102GRAZHDANOVA                   RAYISA                        20011953FRUSSA                         245VIA JUGLARIS 68                                                            10024               
200115600181011CQCGPP45L02G580XACQUACHIARA                   GIUSEPPE                      02071945M086014   ITALIANA                      001
200115600181022GRZRYS53A60Z138DGRAZHDANOVA                   RAYISA                        20011953F      000RUSSA                         245
10011560018226062013ZANDRINO                      GUIDO                         16021960MITALIANA                      00000000000000000000000000000102                                                                                                      VIA PESCHIERA 7                                                            10024               
200115600182011ZNDGDU60B16L219PZANDRINO                      GUIDO                         16021960M001272   ITALIANA                      001
200115600182023LYSLGO63M58Z255GLYSENKO                       OLGA                          18081963F      000UCRAINA                       243
10011560018324062013DE SIMONE                     ROBERTO                       17031976MITALIANA                      00000000000000000000000000000102VADEAN                        ALINA MONICA                  06101985FRUMENA                        235VIA PESCHIERA 7                                                            10024               
200115600183011DSMRRT76C17L219PDE SIMONE                     ROBERTO                       17031976M001272   ITALIANA                      001
200115600183022VDNLMN85R46Z129SVADEAN                        ALINA MONICA                  06101985F      235RUMENA                        235
10011560018423022017RICCHIARDI                    SIMONA                        14041980FITALIANA                      00000000000000000000000000000102BAKIR                         AMINE                         19021989MTUNISINA                      460STRADA PRESERASCA 8                                                        10024               
200115600184011RCCSMN80D54L219MRICCHIARDI                    SIMONA                        14041980F001272   ITALIANA                      001
200115600184022BKRMNA89B19Z352MBAKIR                         AMINE                         19021989M      460TUNISINA                      460
10011560019110032008ALEO                          SALVATORE                     30081971MITALIANA                      00000000000000000000000000000102PEREZ ASTONITAS               ELVIA                         12061976FPERUVIANA                     615CORSO TRIESTE 75                                                           10024               
200115600191011LAESVT71M30Z112BALEO                          SALVATORE                     30081971M      216ITALIANA                      001
200115600191022PRZLVE76H52Z611DPEREZ ASTONITAS               ELVIA                         12061976F      615PERUVIANA                     615
10011560019230042015TIA                           FRANCK SYLVESTRE              15031985MITALIANA                      00000000000000000000000000000102ADIGNON                       EVA MARIE FRANCE              09041984FIVORIANA                      404VIA PAPA GIOVANNI XXIII 17                                                 10024               
200115600192011TIAFNC85C15Z313DTIA                           FRANCK SYLVESTRE              15031985M      404ITALIANA                      001
200115600192022DGNVRF84D49Z313GADIGNON                       EVA MARIE FRANCE              09041984F      404IVORIANA                      404
10011560019324022006BARRA                         MICHELE                       16081965MITALIANA                      00000000000000000000000000000102                                                                                                      VIA VILLAFRANCA 30                                                         10024               
200115600193011BRRMHL65M16B429WBARRA                         MICHELE                       16081965M085004   ITALIANA                      001
200115600193023LNGGGN98B18Z129HLINGURAR                      GEORGIAN CLAUDIU              18021998M      235RUMENA                        235
10011560019430032009MALDERA                       VITO                          20081959MITALIANA                      00000000000000000000000000000102                                                                                                      STRADA GENOVA 55B                                                          10024               
200115600194011MLDVTI59M20L219EMALDERA                       VITO                          20081959M001272   ITALIANA                      001
200115600194023VSLRDC62C50Z129EAVASILCAI                     RODICA                        10031962F      235RUMENA                        235
10011560020106062014DI DONATO                     GIUSEPPE AUGUSTO              28091954MITALIANA                      00000000000000000000000000000103MEHES                         LAURA NICOLETA                24071986FRUMENA                        235VIA SESTRIERE 9                                                            10024               
200115600201011DDNGPP54P28L219DDI DONATO                     GIUSEPPE AUGUSTO              28091954M001272   ITALIANA                      001
200115600201022MHSLNC86L64Z129GMEHES                         LAURA NICOLETA                24071986F      235RUMENA                        235
200115600201033MHSMHS11T02Z129WMEHES                         MATHIAS GABRIEL               02122011M      235RUMENA                        235
10011560020220121961DELPERO                       ANTONINO                      20121961MITALIANA                      00000000000000000000000000000103IARMOLENKO                    INNA                          22031972FUCRAINA                       243VIA GIUSEPPE UNGARETTI 17                                                  10024               
200115600202011DLPNNN61T20F335YDELPERO                       ANTONINO                      20121961M001156   ITALIANA                      001
200115600202022RMLNNI72C62Z138RIARMOLENKO                    INNA                          22031972F      243UCRAINA                       243
200115600202033DLPLSE08E66F335LDELPERO                       ELISA                         26052008F001156   ITALIANA                      001
10011560020317102011GODAJ                         ARANIT                        09011979MITALIANA                      00000000000000000000000000000103GODAJ                         OFELI                         11091990FALBANESE                      201STRADA RIGOLFO 10                                                          10024               
200115600203011GDJRNT79A09Z100NGODAJ                         ARANIT                        09011979M      201ITALIANA                      001
200115600203022GDJFLO90P51Z100NGODAJ                         OFELI                         11091990F      201ALBANESE                      201
200115600203033GDJRNL16E70F335IGODAJ                         ARNELA                        30052016F001156   ITALIANA                      001
10011560020415051996SERHATI                       FRIDA                         07121964FITALIANA                      00000000000000000000000000000103                                                                                                      VIA PASTRENGO 92TER                                                        10024               
200115600204011SRHFRD64T47Z100MSERHATI                       FRIDA                         07121964F      201ITALIANA                      001
200115600204023HPEBND88R69Z100XHEPI                          BELINDA                       29101988F      201ITALIANA                      001
200115600204033SRHFRT28B51Z100SSERHATI                       FIQRETE                       11021928F      201ALBANESE                      201
10011560021110042006BOSTAN                        RAMONA MONICA                 03041975FITALIANA                      00000000000000000000000000000103PETRICA                       IONEL                         15091967MRUMENA                        235CORSO DANTE 7                                                              10024               
200115600211011BSTRNM75D43Z129NBOSTAN                        RAMONA MONICA                 03041975F      235ITALIANA                      001
200115600211022PTRNLI67P15Z129MPETRICA                       IONEL                         15091967M      235RUMENA                        235
200115600211033PTRSFN13P06F335TPETRICA                       STEFANO                       06092013M001156   ITALIANA                      001
10011560021222071991ZAIMI                         GENTIAN                       24071972MITALIANA                      00000000000000000000000000000103ZAIMI                         ETLEVA                        20011982FITALIANA                      001VIA PESCHIERA 11                                                           10024               
200115600212011ZMAGTN72L24Z100ZZAIMI                         GENTIAN                       24071972M      201ITALIANA                      001
200115600212022ZMATLV82A60Z100FZAIMI                         ETLEVA                        20011982F      201ITALIANA                      001
200115600212033ZMAVRR45P69Z100WZAIMI                         VEPRORE                       29091945F      201ALBANESE                      201
10011560021305112009GIARRATANO                    SALVATORE                     02051964MITALIANA                      00000000000000000000000000000103MARKOVA                       ELENA                         17061972FRUSSA                         245STRADA PRESERASCA 65                                                       10024               
200115600213011GRRSVT64E02L219CGIARRATANO                    SALVATORE                     02051964M001272   ITALIANA                      001
200115600213022MRKLNE72H57Z154NMARKOVA                       ELENA                         17061972F      245RUSSA                         245
200115600213033MRKRHR90R07Z154RMARKOV                        RICHARD                       07101990M      245RUSSA                         245
10011560021418061946GARIGLIO                      ANGELA                        18061946FITALIANA                      00000000000000000000000000000103                                                                                                      BORGATA BAUDUCCHI 21                                                       10024               
200115600214011GRGNGL46H58F335OGARIGLIO                      ANGELA                        18061946F001156   ITALIANA                      001
200115600214023TSEMME77H51B777HTESIO                         EMMA                          11061977F001058   ITALIANA                      001
200115600214033NRGDRN73C25Z129INERGHES                       ADRIAN                        25031973M      235RUMENA                        235
10011560022111032013CARRABETTA                    GIANCARLO                     13081979MITALIANA                      00000000000000000000000000000103DOS SANTOS                    LUCINEIDE                     03021985FBRASILIANA                    605VIA AMILCARE PONCHIELLI 43                                                 10024               
200115600221011CRRGCR79M13L219SCARRABETTA                    GIANCARLO                     13081979M001272   ITALIANA                      001
200115600221022DSSLND85B43Z602VDOS SANTOS                    LUCINEIDE                     03021985F      605BRASILIANA                    605
200115600221033CRRCRS16A13L219HCARRABETTA                    CHRISTIAN                     13012016M001272   ITALIANA                      001
10011560022229071952LANE'                         DANILO                        15011952MITALIANA                      00000000000000000000000000000103ZAMORA MENDEZ                 DANIA DE LAS MERCEDES         23021963FCUBANA                        514VIA GIOACCHINO ROSSINI 20                                                  10024               
200115600222011LNADNL52A15G388SLANE'                         DANILO                        15011952M018110   ITALIANA                      001
200115600222022ZMRDDL63B63Z504MZAMORA MENDEZ                 DANIA DE LAS MERCEDES         23021963F      514CUBANA                        514
200115600222033PRZSCR83P03Z504GPEREZ-ROLO ZAMORA             OSCAR                         03091983M      514CUBANA                        514
10011560022317032014DEDA                          ANGJELIN                      03021983MITALIANA                      00000000000000000000000000000103DEDA                          ELDA                          03021989FALBANESE                      201STRADA CARIGNANO 30BIS                                                     10024               
200115600223011DDENJL83B03Z100PDEDA                          ANGJELIN                      03021983M      201ITALIANA                      001
200115600223022DDELDE89B43Z100CDEDA                          ELDA                          03021989F      201ALBANESE                      201
200115600223033DDELSI12S70F335WDEDA                          LISA                          30112012F001156   ITALIANA                      001
10011560022404122003MUNTEANU                      LIDIA                         02091965FITALIANA                      00000000000000000000000000000103MUNTEANU                      ANATOLIE                      26091963M                              000STRADA MAIOLE 32                                                           10024               
200115600224011MNTLDI65P42Z140DMUNTEANU                      LIDIA                         02091965F      000ITALIANA                      001
200115600224022MNTNTL63P26Z140VMUNTEANU                      ANATOLIE                      26091963M      000                              000
200115600224033MNTNTL96L51Z140TMUNTEANU                      NATALIA                       11071996F      000                              000
10011560023114122015DARIE                         MARIA                         15051984FITALIANA                      00000000000000000000000000000103                                                                                                      STRADA GENOVA 187                                                          10024               
200115600231011DRAMRA84E55Z140VDARIE                         MARIA                         15051984F      000ITALIANA                      001
200115600231023DRALXA03H23G482PDARIE                         ALEX                          23062003M068028   ITALIANA                      001
200115600231033LCVGRG84E03Z140BLUCOV                         GHEORGHE                      03051984M      000                              000
10011560023205102015DANIELE                       FEDERICO                      11011961MITALIANA                      00000000000000000000000000000103DANIELE                       NATALIA                       27051972FUCRAINA                       243VIA MARIO PANNUNZIO 30                                                     10024               
200115600232011DNLFRC61A11E716QDANIELE                       FEDERICO                      11011961M071028   ITALIANA                      001
200115600232022DNLNTL72E67Z138EDANIELE                       NATALIA                       27051972F      243UCRAINA                       243
200115600232033DNLLNF08S65Z138RDANIELE                       LILIANA FEDERICA              25112008F      243ITALIANA                      001
10011560023315012013IVANOV                        LIOUDMILA                     10061958FITALIANA                      00000000000000000000000000000103DEIDDA                        MARIO                         14091935MITALIANA                      001CORSO TRIESTE 79                                                           10024               
200115600233011VNVLML58H50Z154AIVANOV                        LIOUDMILA                     10061958F      245ITALIANA                      001
200115600233022DDDMRA35P14G924WDEIDDA                        MARIO                         14091935M090058   ITALIANA                      001
200115600233033KRKTMR77L52Z154WKRIKUNOVA                     TAMARA                        12071977F      245RUSSA                         245
10011560023419111971CARPIGNANO                    GIUSEPPE                      10081967MITALIANA                      00000000000000000000000000000103BOITEL SANCHEZ                BETHANIA BIENVENIDA           15061981FDOMINICANA                    516VIA AMILCARE PONCHIELLI 52                                                 10024               
200115600234011CRPGPP67M10B885CCARPIGNANO                    GIUSEPPE                      10081967M006039   ITALIANA                      001
200115600234022BTLBHN81H55Z505EBOITEL SANCHEZ                BETHANIA BIENVENIDA           15061981F      516DOMINICANA                    516
200115600234033CRSGLI41M50G734RCARUSO                        GIULIA                        10081941F079099   ITALIANA                      001
10011560024110011980FONTANA                       MAURIZIO                      10071959MITALIANA                      00000000000000000000000000000103                                                                                                      STRADA RIGOLFO 30                                                          10024               
200115600241011FNTMRZ59L10L219VFONTANA                       MAURIZIO                      10071959M001272   ITALIANA                      001
200115600241023PRRSLN88T47Z602OPEREIRA DE SOUZA              SIRLENE                       07121888F      605BRASILIANA                    605
200115600241033GRMDNY83H62Z504MAGRAMONTE                     DANAY                         22061983F      514ITALIANA                      001
10011560024216062014MOHAMED AHMED                 BRUNO                         20101981MITALIANA                      00000000000000000000000000000103ALI MOHAMED AHMED             HEBA                          18121988FEGIZIANA                      419CORSO ROMA 19                                                              10024               
200115600242011MHMBRN81R20F335UMOHAMED AHMED                 BRUNO                         20101981M001156   ITALIANA                      001
200115600242022LMHHBE88T58Z336DALI MOHAMED AHMED             HEBA                          18121988F      419EGIZIANA                      419
200115600242033MHMRTL12M59F335DMOHAMED AHMED                 RITAL                         19082012F001156   ITALIANA                      001
10011560024309111992RACCA                         LAURA                         29121971FITALIANA                      00000000000000000000000000000103CURRIE                        DOMINIC ROBERT                19111965MBRITANNICA                    219STRADA CUNIOLI ALTI 78                                                     10024               
200115600243011RCCLRA71T69L219BRACCA                         LAURA                         29121971F001272   ITALIANA                      001
200115600243022CRRDNC65S19Z114OCURRIE                        DOMINIC ROBERT                19111965M      219BRITANNICA                    219
200115600243033CRRNCI06S24L219UCURRIE                        NICO                          24112006M001272   ITALIANA                      001
10011560024411102013RANIERI                       GIOVANNI                      14061971MITALIANA                      00000000000000000000000000000103BALAN                         MIHAELA TRANDAFIRA            22021980FRUMENA                        235VIA GOITO 7                                                                10024               
200115600244011RNRGNN71H14F335LRANIERI                       GIOVANNI                      14061971M001156   ITALIANA                      001
200115600244022BLNMLT80B62Z129OBALAN                         MIHAELA TRANDAFIRA            22021980F      235RUMENA                        235
200115600244033RNRLRZ14M70F335BRANIERI                       LUCREZIA                      30082014F001156   ITALIANA                      001
10011560025128091996PERRI                         ERMENEGILDO                   09051971MITALIANA                      00000000000000000000000000000104                                                                                                      CORSO ROMA 20TER                                                           10024               
200115600251011PRRRNG71E09Z112UPERRI                         ERMENEGILDO                   09051971M      216ITALIANA                      001
200115600251023PRRLBT10T48Z155IPERRI                         ELISABETTA                    08122010F      000ITALIANA                      001
200115600251033PRRSML13D26L219KPERRI                         SAMUEL                        26042013M001272   ITALIANA                      001
200115600251043MNDKRN81A64Z155SMANDUCHOVA                    KATARINA                      24011981F      000                              000
10011560025223042014FUMAGALLI                     MAGRET                        24101989FITALIANA                      00000000000000000000000000000104                                                                                                      VIA GIACOMO LEOPARDI 2                                                     10024               
200115600252011FMGMRT89R64Z335WFUMAGALLI                     MAGRET                        24101989F      443ITALIANA                      001
200115600252023JBFCST65H52Z335HOJOBO FUMAGALLI               CRISTY                        12061965F      443NIGERIANA                     443
200115600252033FMGLGU88A16Z335WFUMAGALLI                     LUIGI                         16011988M      443ITALIANA                      001
200115600252043JBFRKE01A69D205FOJOBO FUMAGALLI               ERIKA                         29012001F004078   NIGERIANA                     443
10011560025323121961CIRIGLIANO                    INNOCENZO                     25051950MITALIANA                      00000000000000000000000000000104GENTILE                       LEONARDA                      10051950FITALIANA                      001BORGATA TAGLIAFERRO 65                                                     10024               
200115600253011CRGNCN50E25E147ACIRIGLIANO                    INNOCENZO                     25051950M077011   ITALIANA                      001
200115600253022GNTLRD50E50E147NGENTILE                       LEONARDA                      10051950F077011   ITALIANA                      001
200115600253033CRGPLA84C28F335DCIRIGLIANO                    PAOLO                         28031984M001156   ITALIANA                      001
200115600253043MHIMDR91T70Z129QMIHAI                         MINODORA MARIA                30121991F      235RUMENA                        235
10011560025410022016OSTENGO                       ANDREA GIORGIO                22121978MITALIANA                      00000000000000000000000000000104BINETSKA                      IULIIA                        31121982FUCRAINA                       243STRADA PASUBIO 36                                                          10024               
200115600254011STNNRG78T22L219GOSTENGO                       ANDREA GIORGIO                22121978M001272   ITALIANA                      001
200115600254022BNTLIU82T71Z138KBINETSKA                      IULIIA                        31121982F      243UCRAINA                       243
200115600254033STNVLR15S61L219YOSTENGO                       VALERIA                       21112015F001272   ITALIANA                      001
200115600254043BNTVNT54A54Z138KBINETSKA                      VALENTYNA                     14011954F      243UCRAINA                       243
10011560026130122013DALL'OLIO                     MAURIZIO                      26081981MITALIANA                      00000000000000000000000000000104                                                                                                      VIA PASTRENGO 27A                                                          10024               
200115600261011DLLMRZ81M26F335UDALL'OLIO                     MAURIZIO                      26081981M001156   ITALIANA                      001
200115600261023DLLGRG15E03L219XDALL'OLIO                     GIORGIO                       03052015M001272   ITALIANA                      001
200115600261033DLLMGH15E43L219PDALL'OLIO                     MARGHERITA                    03052015F001272   ITALIANA                      001
200115600261043BRBRCL77E58Z129ZBARBULESCU                    RALUCA OLGUTA                 18051977F      235RUMENA                        235
10011560026217072009MORELLI                       ALBERTO                       04091961MITALIANA                      00000000000000000000000000000104SATO                          MAKI                          19031964FGIAPPONESE                    326STRADA REBAUDE 180                                                         10024               
200115600262011MRLLRT61P04L219NMORELLI                       ALBERTO                       04091961M001272   ITALIANA                      001
200115600262022STAMKA64C59Z219SSATO                          MAKI                          19031964F      326GIAPPONESE                    326
200115600262033MRLNNA01L44L219ZMORELLI                       ANNA                          04072001F001272   ITALIANA                      001
200115600262043MRLMTT03P18L219TMORELLI                       MATTIA                        18092003M001272   ITALIANA                      001
10011560026322062009GAMMICCHIA                    ROBERTO                       21071969MITALIANA                      00000000000000000000000000000104CRUCERU                       CARMEN MARIANA                25051974FRUMENA                        235VIA GIUSEPPE UNGARETTI 14                                                  10024               
200115600263011GMMRRT69L21F335RGAMMICCHIA                    ROBERTO                       21071969M001156   ITALIANA                      001
200115600263022CRCCMN74E65Z129BCRUCERU                       CARMEN MARIANA                25051974F      235RUMENA                        235
200115600263033GMMMLN98R48L219QGAMMICCHIA                    MELANIE                       08101998F001272   ITALIANA                      001
200115600263043GMMCHR00T45F335LGAMMICCHIA                    CHIARA                        05122000F001156   ITALIANA                      001
10011560026406082009SANDRONE                      MAURO                         03021977MITALIANA                      00000000000000000000000000000104CHECHOTKINA                   ALLA                          16021983FUCRAINA                       243VIA DE FERNEX 3                                                            10024               
200115600264011SNDMRA77B03F335HSANDRONE                      MAURO                         03021977M001156   ITALIANA                      001
200115600264022CHCLLA83B56Z138RCHECHOTKINA                   ALLA                          16021983F      243UCRAINA                       243
200115600264033SNDLSS12L01F335DSANDRONE                      ALESSIO                       01072012M001156   ITALIANA                      001
200115600264043SNDLRT16S26C627LSANDRONE                      ALBERTO                       26112016M001078   ITALIANA                      001
10011560027118042001QUIRICO                       ALESSANDRO                    15101971MITALIANA                      00000000000000000000000000000104VISURRAGA                     MARIA ELIZABETH               23121964FITALIANA                      001VIA MONTE BIANCO 42B                                                       10024               
200115600271011QRCLSN71R15L219MQUIRICO                       ALESSANDRO                    15101971M001272   ITALIANA                      001
200115600271022VSRMLZ64T63Z611IVISURRAGA                     MARIA ELIZABETH               23121964F      615ITALIANA                      001
200115600271033QRCPLA01E71L219ZQUIRICO                       PAOLA                         31052001F001272   ITALIANA                      001
200115600271043LNVNDR90D43Z611OLAINEE VISURRAGA              ANNDREA STEPHANNIE            03041990F      615PERUVIANA                     615
10011560027211012002GHEORGHE                      CORINA                        22121968FITALIANA                      00000000000000000000000000000104DUMITRESCU                    LUCIAN DAN                    09021966MITALIANA                      001VIA PIERO GOBETTI 9                                                        10024               
200115600272011GHRCRN68T62Z129TGHEORGHE                      CORINA                        22121968F      235ITALIANA                      001
200115600272022DMTLND66B09Z129BDUMITRESCU                    LUCIAN DAN                    09021966M      235ITALIANA                      001
200115600272033DMTVTS95A50Z129LDUMITRESCU                    VIOLETA STEFANIA              10011995F      235RUMENA                        235
200115600272043GHRLNE46M58Z129OGHEORGHE                      ELENA                         18081946F      235RUMENA                        235
10011560027312112014LINARES FLORES                EMELIT FATIMA                 29031960FITALIANA                      00000000000000000000000000000104                                                                                                      CORSO FRATELLI ROSSELLI 6                                                  10024               
200115600273011LNRMTF60C69Z601NLINARES FLORES                EMELIT FATIMA                 29031960F      604ITALIANA                      001
200115600273023BTSZYD58P55Z611KBAUTISTA AVALOS               ZOILA AYDEE                   15091958F      615PERUVIANA                     615
200115600273033LMLMLD88D04Z601SLIMA LINARES                  MIGUEL DE LOS ANGELES         04041988M      604BOLIVIANA                     604
200115600273043LMLMTR89D46Z601BLIMA LINARES                  EMELIT RAQUEL                 06041989F      604BOLIVIANA                     604
10011560027415092015SHOAIB                        ULLAH                         22081976MITALIANA                      00000000000000000000000000000104SHOAIB                        SAMIA                         14031978FPAKISTANA                     344BORGATA TETTI PIATTI 23                                                    10024               
200115600274011SHBLLH76M22Z236HSHOAIB                        ULLAH                         22081976M      344ITALIANA                      001
200115600274022SHBSMA78C54Z236RSHOAIB                        SAMIA                         14031978F      344PAKISTANA                     344
200115600274033SHBSLH06C05B111XSHOAIB                        SALIHA                        05032006M004029   ITALIANA                      001
200115600274043SHBTLH07A22B111PSHOAIB                        TALHA                         22012007M004029   ITALIANA                      001
10011560028124101969DI CRESCENZO                  MIRELLA                       10061966FITALIANA                      00000000000000000000000000000104                                                                                                      VIA NICOLO' TOMMASEO 5                                                     10024               
200115600281011DCRMLL66H50L219WDI CRESCENZO                  MIRELLA                       10061966F001272   ITALIANA                      001
200115600281023DCRMRC06B22L219NDI CRESCENZO                  MARCO                         22022006M001272   ITALIANA                      001
200115600281033DCRRLF71R09L219YDI CRESCENZO                  RODOLFO                       09101971M001272   ITALIANA                      001
200115600281043LVEVLR70E61Z110FLEIVA                         VALERIE                       21051970F      215FRANCESE                      215
10011560028225112013BONILLA MARCHENA              KAREN ISELA                   07011982FITALIANA                      00000000000000000000000000000104                                                                                                      STRADA REVIGLIASCO 33                                                      10024               
200115600282011BNLKNS82A47Z611TBONILLA MARCHENA              KAREN ISELA                   07011982F      615ITALIANA                      001
200115600282023DRGLSS07P11L219ADRAGNA                        ALESSIO                       11092007M001272   ITALIANA                      001
200115600282033DRGNLS10D14L219ZDRAGNA                        NICOLAS                       14042010M001272   ITALIANA                      001
200115600282043MRCMTH61A41Z611FMARCHENA SOLIS                MARTHA SARA                   01011961F      615PERUVIANA                     615
10011560028323031970GUELI                         GAETANO                       28031957MITALIANA                      00000000000000000000000000000104ALCANTARA DIAS GUELI          PATRICIA                      28061976FBRASILIANA                    605VIA JUGLARIS 66                                                            10024               
200115600283011GLUGTN57C28F065QGUELI                         GAETANO                       28031957M085009   ITALIANA                      001
200115600283022LCNPRC76H68Z602FALCANTARA DIAS GUELI          PATRICIA                      28061976F      605BRASILIANA                    605
200115600283033GLULSN96E48F335JGUELI                         ALESSANDRA                    08051996F001156   ITALIANA                      001
200115600283043GLUFRC09S02F335IGUELI                         FEDERICO                      02112009M001156   ITALIANA                      001
10011560028407022004GRIMED                        HABIB                         15031967MITALIANA                      00000000000000000000000000000104                                                                                                      CORSO ROMA 20TER                                                           10024               
200115600284011GRMHBB67C15Z301BGRIMED                        HABIB                         15031967M      401ITALIANA                      001
200115600284023DJRFTM42A45Z301MDJAROUD                       FATIMA                        05011942F      401ALGERINA                      401
200115600284033GRMRDA71R57Z301YGRIMED                        RADIA                         17101971F      401ALGERINA                      401
200115600284043GRMMMM69M23Z301TGRIMED                        MOHAMMED REDA                 23081969M      401ALGERINA                      401
10011560029123061994SECK                          SERIGNE                       12041959MITALIANA                      00000000000000000000000000000105WELE                          FATOU                         21021974FSENEGALESE                    450VIA MONTE NERO 30                                                          10024               
200115600291011SCKSGN59D12Z343KSECK                          SERIGNE                       12041959M      450ITALIANA                      001
200115600291022WLEFTA74B61Z343BWELE                          FATOU                         21021974F      450SENEGALESE                    450
200115600291033SCKDLN98T43F335OSECK                          DIAW LIANA                    03121998F001156   ITALIANA                      001
200115600291043SCKFNG02A41F335FSECK                          FANIANG                       01012002F001156   ITALIANA                      001
200115600291053SCKMWD07E45F335LSECK                          MAFAWADE                      05052007F001156   ITALIANA                      001
10011560029207032002HADDADY                       ABDALLAH                      24121962MITALIANA                      00000000000000000000000000000105TOUBAJI                       BOUCHRA                       14031968FITALIANA                      001BORGATA TAGLIAFERRO 32                                                     10024               
200115600292011HDDBLL62T24Z330RHADDADY                       ABDALLAH                      24121962M      436ITALIANA                      001
200115600292022TBJBHR68C54Z330TTOUBAJI                       BOUCHRA                       14031968F      436ITALIANA                      001
200115600292033HDDSMK99B58L219JHADDADY                       SALIMA IKBAL                  18021999F001272   ITALIANA                      001
200115600292043HDDHDO05T48L219GHADDADY                       HOUDA                         08122005F001272   ITALIANA                      001
200115600292053TBJFOU73T56Z330GTOUBAJI                       OUAFAA                        16121973F      436MAROCCHINA                    436
10011560029307062010MOUBACHAR                     AZZEDDINE                     08091970MITALIANA                      00000000000000000000000000000105NAJID                         MAJDA                         14061981FMAROCCHINA                    436VIA GIACOMO LEOPARDI 2                                                     10024               
200115600293011MBCZDD70P08Z330EMOUBACHAR                     AZZEDDINE                     08091970M      436ITALIANA                      001
200115600293022NJDMJD81H54Z330DNAJID                         MAJDA                         14061981F      436MAROCCHINA                    436
200115600293033MBCNSA08E16L219RMOUBACHAR                     ANAS                          16052008M001272   ITALIANA                      001
200115600293043MBCSMA11L66F335KMOUBACHAR                     ASMAA                         26072011F001156   ITALIANA                      001
200115600293053MBCZDA11L26F335CMOUBACHAR                     ZAID                          26072011M001156   ITALIANA                      001
10011560029420042015JARMOUNI                      KHADDOUJ                      01011975FITALIANA                      00000000000000000000000000000105                                                                                                      PIAZZA BENGASI 28                                                          10024               
200115600294011JRMKDD75A41Z330JJARMOUNI                      KHADDOUJ                      01011975F      436ITALIANA                      001
200115600294023CHBZKR95B05Z330BCHABKAOUI                     ZAKARIA                       05021995M      436MAROCCHINA                    436
200115600294033CHBNDA99B45Z330LCHABKAOUI                     NADIA                         05021999F      436ITALIANA                      001
200115600294043CHBRNA02D63Z330ECHBKAOUI                      RANIA                         23042002F      436ITALIANA                      001
200115600294053LHSMDI84L26Z330AEL HASNAOUI                   IMAD                          26071984M      436MAROCCHINA                    436
10011560030107012016EL HAMLILI                    FATIMA ZAHRA                  03091980FITALIANA                      00000000000000000000000000000105                                                                                                      STRADA STUPINIGI 111                                                       10024               
200115600301011LHMFMZ80P43Z330QEL HAMLILI                    FATIMA ZAHRA                  03091980F      436ITALIANA                      001
200115600301023RMNSRA08C56F335YRAIMONDI                      SARA                          16032008F001156   ITALIANA                      001
200115600301033RMNMRO16B27F335XRAIMONDI                      OMAR                          27022016M001156   ITALIANA                      001
200115600301043KHYSFI53A41Z330ZOUKHOUYA                      SFIA                          01011953F      436MAROCCHINA                    436
200115600301053LHMLCN50A01Z330EEL HAMLILI                    LAHCEN                        01011950M      436MAROCCHINA                    436
10011560030213062007ARROYO                        LILY DE LOURDES               06081967FITALIANA                      00000000000000000000000000000105OTOYA ZURCHER                 GUSTAVO ALBERTO               13081969MPERUVIANA                     615VIA PAPA GIOVANNI XXIII 15                                                 10024               
200115600302011RRYLYD67M46Z611FARROYO                        LILY DE LOURDES               06081967F      615ITALIANA                      001
200115600302022TYZGTV69M13Z611LOTOYA ZURCHER                 GUSTAVO ALBERTO               13081969M      000PERUVIANA                     615
200115600302033TYRGVR08P41L219DOTOYA ARROYO                  GINEVRA ALESSIA               01092008F001272   ITALIANA                      001
200115600302043RRYLND41S17Z611IARROYO TELLO                  ALEJANDRO HILARIO             17111941M      615PERUVIANA                     615
200115600302053PNLBTH46L51Z611DPINILLOS VASQUEZ DE ARROYO    BERTHA ESTHER                 11071946F      615PERUVIANA                     615
10011560030328112001SCALENGHE                     LUIGI                         12091968MITALIANA                      00000000000000000000000000000105SCALENGHE-KARLEN              CORNELIA                      22031967FSVIZZERA                      241STRADA ROCCACATENE 9BIS                                                    10024               
200115600303011SCLLGU68P12F335USCALENGHE                     LUIGI                         12091968M001156   ITALIANA                      001
200115600303022SCLCNL67C62Z133USCALENGHE-KARLEN              CORNELIA                      22031967F      241SVIZZERA                      241
200115600303033SCLLCU99H05Z133TSCALENGHE                     LUCA                          05061999M      241ITALIANA                      001
200115600303043SCLNRN02C01Z133RSCALENGHE                     ANDREA ENRIQUE                01032002M      241ITALIANA                      001
200115600303053SCLSHM04C45Z133XSCALENGHE                     SOPHIE MADDALENA              05032004F      241ITALIANA                      001
10011560030411092009CIORICI                       ION                           10101976MITALIANA                      00000000000000000000000000000105CHIRTOACA                     NATALIA                       02081981F                              000VIA LAGRANGE 8                                                             10024               
200115600304011CRCNIO76R10Z140GCIORICI                       ION                           10101976M      000ITALIANA                      001
200115600304022CHRNTL81M42Z140FCHIRTOACA                     NATALIA                       02081981F      000                              000
200115600304033CRCKMI11L67L219ZCIORICI                       KIMI                          27072011F001272   ITALIANA                      001
200115600304043CRCNKT13E29L219ECIORICI                       NIKITA                        29052013M001272   ITALIANA                      001
200115600304053BRJCST86E13Z129FOBREJA                        CONSTANTIN                    13051986M      235RUMENA                        235
10011560031127081968SCASSA                        GIOVANNI BATTISTA             06081964MITALIANA                      00000000000000000000000000000105KASS                          MARIA                         01051968FESTONE                        247STRADA S.BRIGIDA 5                                                         10024               
200115600311011SCSGNN64M06L219ZSCASSA                        GIOVANNI BATTISTA             06081964M001272   ITALIANA                      001
200115600311022KSSMRA68E41Z144WKASS                          MARIA                         01051968F      247ESTONE                        247
200115600311033SCSVTR09L27F335JSCASSA                        VICTOR                        27072009M001156   ITALIANA                      001
200115600311043SCSPTR09L27F335DSCASSA                        PETER                         27072009M001156   ITALIANA                      001
200115600311053PRFVTR29B17Z154APARFENOVICH                   VICTOR                        17021929M      245RUSSA                         245
10011560031223092005ILIEVSKI                      ORCE                          09061966MITALIANA                      00000000000000000000000000000105ILIEVSKA                      ZHIVKA                        24071973FITALIANA                      001VIA MONTE NERO 30                                                          10024               
200115600312011LVSRCO66H09Z148YILIEVSKI                      ORCE                          09061966M      000ITALIANA                      001
200115600312022LVSZVK73L64Z148NILIEVSKA                      ZHIVKA                        24071973F      000ITALIANA                      001
200115600312033LVSLSN00C02F335IILIEVSKI                      ALEKSANDAR                    02032000M001156   ITALIANA                      001
200115600312043LVSSRA02E71F335GILIEVSKA                      SARA                          31052002F001156   ITALIANA                      001
200115600312053LVSBRC79A26Z148KILIEVSKI                      BORCE                         26011979M      000                              000
10011560031305092000ZAPPIA                        LUIGI                         26081965MITALIANA                      00000000000000000000000000000105DA CONCEICAO ALMEIDA          MARIA DA GRACA                28081969FPORTOGHESE                    234VIA CAVOUR 26                                                              10024               
200115600313011ZPPLGU65M26F335OZAPPIA                        LUIGI                         26081965M001156   ITALIANA                      001
200115600313022DCNMDG69M68Z128LDA CONCEICAO ALMEIDA          MARIA DA GRACA                28081969F      234PORTOGHESE                    234
200115600313033ZPPNTN99H16L219AZAPPIA                        ANTONIO                       16061999M001272   ITALIANA                      001
200115600313043ZPPMRC03D19L219EZAPPIA                        MARCO                         19042003M001272   ITALIANA                      001
200115600313053ZPPLSN05P30L219YZAPPIA                        ALESSANDRO                    30092005M001272   ITALIANA                      001
10011560031421061994SULMINA                       PELLUMB                       06021968MITALIANA                      00000000000000000000000000000106MERAJA                        ELVIRA                        03051975FITALIANA                      001STRADA DEL BOSSOLO 48                                                      10024               
200115600314011SLMPLM68B06Z100GSULMINA                       PELLUMB                       06021968M      201ITALIANA                      001
200115600314022MRJLVR75E43Z100GMERAJA                        ELVIRA                        03051975F      201ITALIANA                      001
200115600314033SLMSRN94B63F335QSULMINA                       SABRINA                       23021994F001156   ITALIANA                      001
200115600314043SLMDNL98P67F335CSULMINA                       DANIELA                       27091998F001156   ITALIANA                      001
200115600314053MRJLAI44T10Z100BMERAJA                        ALI                           10121944M      201ALBANESE                      201
200115600314063MRJLZM52A52Z100YMERAJA                        LULZIME                       12011952F      201ALBANESE                      201
10011560032129031977CAVALLERO                     MARIA GABRIELLA               27051954FITALIANA                      00000000000000000000000000000106MONTICONE                     GIUSEPPE                      11091951MITALIANA                      001STRADA GENOVA 341                                                          10024               
200115600321011CVLMGB54E67B791ECAVALLERO                     MARIA GABRIELLA               27051954F001059   ITALIANA                      001
200115600321022MNTGPP51P11F335LMONTICONE                     GIUSEPPE                      11091951M001156   ITALIANA                      001
200115600321033MNTCST78D15L219GMONTICONE                     CRISTIANO                     15041978M001272   ITALIANA                      001
200115600321043MNTGRL10C14L219TMONTICONE                     GABRIELE                      14032010M001272   ITALIANA                      001
200115600321053MNTGMR11D60L219JMONTICONE                     GIULIA MARIA                  20042011F001272   ITALIANA                      001
200115600321063LVRRLL90L65Z602YOLIVEIRA DA SILVA             RENIELLY                      25071990F      605BRASILIANA                    605
10011560032223112004FERRARO                       LEOLUCA                       11071967MITALIANA                      00000000000000000000000000000106MAURICIO                      MIRTHA                        26031980FITALIANA                      001VIA ANGELO BROFFERIO 7                                                     10024               
200115600322011FRRLLC67L11F537QFERRARO                       LEOLUCA                       11071967M102047   ITALIANA                      001
200115600322022MRCMTH80C66Z611DMAURICIO                      MIRTHA                        26031980F      615ITALIANA                      001
200115600322033FRRFPP04T02F335JFERRARO                       FILIPPO                       02122004M001156   ITALIANA                      001
200115600322043FRRBND06L68F335WFERRARO                       BRENDA ALISSON                28072006F001156   ITALIANA                      001
200115600322053MRCRMR98E59Z611PMAURICIO PARIONA              ROSMERY ZARELA                19051998F      615PERUVIANA                     615
200115600322063MRCCRG93E18Z611UMAURICIO MEZA                 CESAR AUGUSTO                 18051993M      615ITALIANA                      001
10011560032302042008SEGRE'                        MARIA CRISTINA                19031945FITALIANA                      00000000000000000000000000000106ZANDANO                       GIANNI                        16111934MITALIANA                      001VIA PALESTRO 4                                                             10024               
200115600323011SGRMCR45C59D612ZSEGRE'                        MARIA CRISTINA                19031945F048017   ITALIANA                      001
200115600323022ZNDGNN34S16L219DZANDANO                       GIANNI                        16111934M001272   ITALIANA                      001
200115600323033ZNDGNN69H24D969DZANDANO                       GIOVANNI                      24061969M010025   ITALIANA                      001
200115600323043ZNDGRL08L18L219JZANDANO                       GABRIELE NIK                  18072008M001272   ITALIANA                      001
200115600323053ZNDSNN13D15L219AZANDANO                       SIMONE NIK                    15042013M001272   ITALIANA                      001
200115600323063YAOVTR82L64Z335TAYO                           VICTORIA EKO                  24071982F      443NIGERIANA                     443
